:10000000342E8207DD348434E934E534B434753475
:100010007D34C434FD34F534FC343D342934AD34FE
:10002000793478345D34BC3408340034FF34F83427
:1000300028342D34F4340D3439347534E93418341B
:10004000853439341934DC341D3421348207F734D3
:10005000FB34FE34FD34FF34820700349834963488
:10006000803400340F344234403400340134863458
:10007000A034003400342734103400340034033406
:10008000E834003400340034643400340034003484
:100090000A3400340034003401343C088207442F11
:1000A0004F2F652F6D2F752F7D2F882F8A2F8C2F27
:1000B0008E2F902F922F442F3C0882079D2F9E2F2A
:1000C000A52FB32FC02FC52FC82FC82FC82FC82FBB
:1000D000C82F9D2F640083168100831200346400B2
:1000E000810183162730810064002F308100831244
:1000F0000034003086008B016400810183162B30B0
:1001000081008312630000000800C9007F390120CC
:10011000C91B0238C9000034CA007F390120CA1B3C
:100120000238CA000034CB007F390120CB1B0238D3
:10013000CB000034CC007F390120CC1B0238CC002E
:100140000034CD007F390120CD1B0238CD000034B2
:100150000030C900CA00CB00CC00CD0000348B13A6
:1001600083169B008312000883169A001C158B13BC
:1001700055309D00AA309D009C149C18BD281C1170
:1001800083120034AF008B1383169B001C141A08D3
:10019000831280002F080800C220013E840AC2207A
:1001A000013E840AC220013E840AC228B001B10186
:1001B000B201B301AC018101000000004E0826200D
:1001C000AF0049304E078400000886002F088500E4
:1001D000CF0A4F1BCE0A4F134E08043C031CCE011E
:1001E0000108B3000130AC1F0301B31B0301B207C8
:1001F0000318B10AB11B1A293308AC00AE08031961
:10020000AD03AE0364000C30FF3E031D0429000063
:1002100000000000000000002D082E04031DDE2851
:100220000108B3000130AC1F0301B31B0301B20787
:100230000318B10A00340008840AB0000008840AD8
:10024000B1000008840AB2000008840AB300A701C4
:1002500040308400640027082C20A800A70A270843
:100260002C20A900A70A27082C20AA00A70A2708E3
:100270002C20AB00A70A80012B08B3022A08031820
:100280004629B20203190310B2034729B202290812
:1002900003184F29B10203190310B1035029B10209
:1002A000280803185829B00203190310B00359296C
:1002B000B002031C5D29800A3C292B08B3072A08D9
:1002C000031C6729B207B20A031903146829B2078D
:1002D0002908031C7029B107B10A031903147129F5
:1002E000B1072808031C7929B007B00A03190314C1
:1002F0007A29B007840A20302702031D2A294030BA
:1003000084008008031D9429840A8008031D942911
:10031000840A8008031D9129840A8008031D9129FD
:10032000840A5118C4179529C11700088520840A2A
:1003300000088C20840A00089320840A00089A2070
:06034000840A0008A12858
:100C680000308316850083128501003083168600C4
:100C780083128601CE01CF011330C80014308520BD
:100C880014308C201430932014309A201430A12072
:100C980027306A206130AD00A830AE00D620D201DE
:100CA800D401383084000030CC2055308400203006
:100CB800C220A820831600308500003086008312E9
:100CC800640020308316810083120630AD00823024
:100CD800AE0025306A20D6203030AD00D430AE00CA
:100CE800D10AD20A3208C039031DAB2EB21AA72E78
:100CF800321AA32EB2199F2E32199C2EB2189C2E8E
:100D080032189C2E3308343C031C9C2E6F20D20AC8
:100D1800D20AD20AC330AD005030AE000030AF2E38
:100D28006F20D20A6130AD00A830AE000130AF2E7E
:100D38006F200230AF2E20306A200330AF2E2130D2
:100D48006A200430AF2E22306A200530AF2E2330BF
:100D58006A200630AF2ED000D620551CE02E54183D
:100D6800A82033085302AF00AF1FBC2EAF09AF0A4B
:100D78002F080A3C0318C52E5410D2013308D3009B
:100D8800E02E5418D12E52083C3C0318DA2E0D30B0
:100D9800D20054143308D300DC2E52080E3C03183A
:100DA800DC2ED2013308D300D201E02E541CE02EF1
:100DB800792079207920262FD0080319EA2E0310EC
:100DC800B30DB20DB10DB00DD00BE32E30083104C8
:100DD800320433040319292FB01B342F3008B40010
:100DE8003108B5003208B6003308B7003B08B3072E
:100DF8003A08031C042FB207B20A03190314052F7B
:100E0800B2073908031C0D2FB107B10A03190314DF
:100E18000E2FB1073808031C162FB007B00A0319A4
:100E28000314172FB007B01F252FB009B109B20955
:100E3800B309B30F252FB20F252FB10F252FB00FF0
:100E4800252F2721851ECA2F5E2E133085201330AB
:100E58008C201330932013309A200030A120262FA5
:100E68000E30852013308C201330932013309A20B5
:100E78001330A1205E2E1330AD008830AE00D62886
:100E88001830852019308C20123093201A309A207F
:100E98001330A1203F2F551C5B2F153085201B30A8
:100EA8008C200A30932022309A200E304D2F21308A
:100EB800852017308C20153093201B309A20223043
:100EC8004D2F0A3085200D308C200D3093201330A3
:100ED8004B2F1B30852019308C200B30932013307A
:100EE8004B2F1C3085200E308C2016309320173065
:100EF8004B2F1A3085200A308C200B30932020305D
:100F08009A200E30A1203F2F0430942F0830942FC0
:100F18000C30942F1030942F1430942F1830942FB5
:100F2800AF00343084002F08CC20343084001B21DB
:100F38003F2F532E0130D506553084002030AF2086
:100F48003F2F343084000030AF20840A0130AF20B6
:100F5800840A0230AF20840A0330AF20532EB4092C
:100F6800B509B609B709B70FBF2FB60FBF2FB50F11
:100F7800BF2FB40FBF2FA52FB401B501B601B7011C
:100F8800A52F0630BC00D82F0230C62FBC01153063
:100F9800852016308C201730932010309A2013307B
:100FA800A1203F27851ED52FD10A4D20851AD82F7D
:100FB8000A30BD00851AE92F3F27BD0BDE2FA82078
:100FC8003F274D20851EE32F5C283C08053C03196C
:100FD800F12F031CF32FBC0AD82FBC01D82F3C08D3
:100FE8000B3C0319FB2F031CFE2FBC0AD82F06301D
:080FF800BC00D82FBC01D82F6A
:02400E00063F6B
:10420000000000000000000000000600F10058005F
:1042100000003D0005001800000040000000000004
:1042200000004300A600D3000000A30031005800A6
:0A4230000000A3004400E0000000BD
:00000001FF
